:100000000C9434000C9451000C9451000C94510049
:100010000C9451000C9482010C9451000C945100EA
:100020000C9451000C9451000C9451000C9451000C
:100030000C9451000C9451000C9451000C945100FC
:100040000C9451000C9451000C9451000C945100EC
:100050000C9451000C9451000C9451000C945100DC
:100060000C9451000C94510011241FBECFEFD8E026
:10007000DEBFCDBF12E0A0E0B1E0E2E5F3E002C0F8
:1000800005900D92AE3FB107D9F724E0AEEFB2E094
:1000900001C01D92AD3FB207E1F70E9422010C940E
:1000A000A7010C94000084B18C6284B98CB5806582
:1000B0008CBD08958EBD00000DB407FEFDCF8EB53A
:1000C00008959BB19B7E9BB924E0829FC0011124BF
:1000D0004061242F282B862F880F822B0E945A00E4
:1000E0005C9A08958BB18B7E8BB988E00E945A0090
:1000F0005C9A08958BB18B7E8BB98CE00E945A007C
:100100005C9A08959BB19B7E9BB980640E945A00C3
:100110005C9A08959BB19B7E9BB980620E945A00B5
:100120005C9A08959BB19B7E9BB9880F6460862B77
:100130000E945A005C9A0895FF920F931F93CF93E9
:10014000DF93C6E0D1E0F12C8F2D0E9482005A9AF5
:100150005C988E010C5A1F4F89910E945A00C0175B
:10016000D107D1F75C9AF394E80186E0F812ECCF5E
:1001700080E00E948200DF91CF911F910F91FF904C
:1001800008958BB188618BB98AB18C618AB98FE38C
:100190009CE90197F1F700C000005C985B989FE72D
:1001A00025EB81E0915020408040E1F700C0000045
:1001B0005B9A5C9A0E94530081E00E948A008BB196
:1001C0008B7E8BB98CEB0E945A005C9A60E080E0D9
:1001D0000E94920041E061E080E00E94610080E0C6
:1001E0000E948A000E947A000E949C000E94720075
:1001F0000E947A000895CF93DF9320E088EF91E08A
:10020000E22FF0E0EA5FFE4F108201972F5F009728
:10021000B9F7C0E0D3E088EF8A830E949C001A827D
:10022000DF91CF9108958AB18F738AB92198EDE655
:10023000F0E08081806C8083E8E6F0E0808184607B
:1002400080830895C0E0D3E01C821A8218820E9445
:10025000C1000E9413010E949C002FEF83ED90E3E8
:10026000215080409040E1F700C000008A81C0E04A
:10027000D1E096E0980FDE012D91E82FF0E0EA5FE3
:10028000FE4F20838F5F8913F7CF00E013E0F80162
:1002900092830E949C00FFEF23ED80E3F150204009
:1002A0008040E1F700C000000E94FB009FEFE3EDFB
:1002B000F0E39150E040F040E1F700C0000089E237
:1002C000F80182830F2EF6E0EF2EF1E0FF2EF02DE5
:1002D000F80182819991E82FF0E0EA5FFE4F908368
:1002E0008F5FF80182830E949C00FFEF29E688E17E
:1002F000F15020408040E1F700C00000CE15DF053E
:1003000039F7FFCF1F920F920FB60F9211242F9340
:100310008F939F9383B1807493B190782091FE0264
:10032000821305C08093FF029093FE0208C02091C3
:10033000FF02921304C08093FF029093FE029F91EC
:100340008F912F910F900FBE0F901F901895F894DA
:02035000FFCFDD
:100352007F0204027F000000000000000000000095
:1003620000C0FFFFFF0000000000000000C0C0004E
:10037200000000000000000000000000000000007B
:10038200000000000000000000000000000000006B
:10039200000000000000000000000000000000005B
:1003A200000000000000000000000000000000004B
:1003B200000000000000000000000000000000003B
:1003C200000000000000000000000000000000002B
:1003D200000000000000000000000000000000001B
:1003E200000000000000000000000000000000000B
:1003F20000000000000000000000000000000000FB
:1004020000000000000000000000000000000000EA
:1004120000000000000000000000000000000000DA
:1004220000000000000000000000000000000000CA
:1004320000000000000000000000000000000000BA
:1004420000000000000000000000000000000000AA
:10045200000000000000000000000000000000009A
:10046200000000000000000000000000000000008A
:10047200000000000000000000000000000000007A
:10048200000000000000000000000000000000006A
:10049200000000000000000000000000000000005A
:1004A200000000000000000000000000000000004A
:1004B200000000000000000000000000000000003A
:1004C200000000000000000000000000000000002A
:1004D200000000000000000000000000000000001A
:1004E200000000000000000000000000000000000A
:1004F20000000000000000000000000000000000FA
:1005020000000000000000000000000000000000E9
:1005120000000000000000000000000000000000D9
:1005220000000000000000000000000000000000C9
:1005320000000000000000000000000000000000B9
:0E0542000000000000000000000000000000AB
:00000001FF
